{
  "_format": "hh-sol-artifact-1",
  "contractName": "NFT",
  "sourceName": "contracts/NFT.sol",
  "abi": [
    {
      "inputs": [],
      "stateMutability": "nonpayable",
      "type": "constructor"
    },
    {
      "anonymous": false,
      "inputs": [
        {
          "indexed": true,
          "internalType": "address",
          "name": "owner",
          "type": "address"
        },
        {
          "indexed": true,
          "internalType": "address",
          "name": "approved",
          "type": "address"
        },
        {
          "indexed": true,
          "internalType": "uint256",
          "name": "tokenId",
          "type": "uint256"
        }
      ],
      "name": "Approval",
      "type": "event"
    },
    {
      "anonymous": false,
      "inputs": [
        {
          "indexed": true,
          "internalType": "address",
          "name": "owner",
          "type": "address"
        },
        {
          "indexed": true,
          "internalType": "address",
          "name": "operator",
          "type": "address"
        },
        {
          "indexed": false,
          "internalType": "bool",
          "name": "approved",
          "type": "bool"
        }
      ],
      "name": "ApprovalForAll",
      "type": "event"
    },
    {
      "anonymous": false,
      "inputs": [
        {
          "indexed": true,
          "internalType": "address",
          "name": "from",
          "type": "address"
        },
        {
          "indexed": true,
          "internalType": "address",
          "name": "to",
          "type": "address"
        },
        {
          "indexed": true,
          "internalType": "uint256",
          "name": "tokenId",
          "type": "uint256"
        }
      ],
      "name": "Transfer",
      "type": "event"
    },
    {
      "inputs": [
        {
          "internalType": "address",
          "name": "to",
          "type": "address"
        },
        {
          "internalType": "uint256",
          "name": "tokenId",
          "type": "uint256"
        }
      ],
      "name": "approve",
      "outputs": [],
      "stateMutability": "nonpayable",
      "type": "function"
    },
    {
      "inputs": [
        {
          "internalType": "address",
          "name": "owner",
          "type": "address"
        }
      ],
      "name": "balanceOf",
      "outputs": [
        {
          "internalType": "uint256",
          "name": "",
          "type": "uint256"
        }
      ],
      "stateMutability": "view",
      "type": "function"
    },
    {
      "inputs": [
        {
          "internalType": "uint256",
          "name": "tokenId",
          "type": "uint256"
        }
      ],
      "name": "getApproved",
      "outputs": [
        {
          "internalType": "address",
          "name": "",
          "type": "address"
        }
      ],
      "stateMutability": "view",
      "type": "function"
    },
    {
      "inputs": [],
      "name": "getOwner",
      "outputs": [
        {
          "internalType": "address",
          "name": "",
          "type": "address"
        }
      ],
      "stateMutability": "view",
      "type": "function"
    },
    {
      "inputs": [
        {
          "internalType": "address",
          "name": "owner",
          "type": "address"
        },
        {
          "internalType": "address",
          "name": "operator",
          "type": "address"
        }
      ],
      "name": "isApprovedForAll",
      "outputs": [
        {
          "internalType": "bool",
          "name": "",
          "type": "bool"
        }
      ],
      "stateMutability": "view",
      "type": "function"
    },
    {
      "inputs": [
        {
          "internalType": "string",
          "name": "tokenURI",
          "type": "string"
        }
      ],
      "name": "mintNFT",
      "outputs": [
        {
          "internalType": "uint256",
          "name": "",
          "type": "uint256"
        }
      ],
      "stateMutability": "nonpayable",
      "type": "function"
    },
    {
      "inputs": [],
      "name": "name",
      "outputs": [
        {
          "internalType": "string",
          "name": "",
          "type": "string"
        }
      ],
      "stateMutability": "view",
      "type": "function"
    },
    {
      "inputs": [
        {
          "internalType": "uint256",
          "name": "tokenId",
          "type": "uint256"
        }
      ],
      "name": "ownerOf",
      "outputs": [
        {
          "internalType": "address",
          "name": "",
          "type": "address"
        }
      ],
      "stateMutability": "view",
      "type": "function"
    },
    {
      "inputs": [
        {
          "internalType": "address",
          "name": "from",
          "type": "address"
        },
        {
          "internalType": "address",
          "name": "to",
          "type": "address"
        },
        {
          "internalType": "uint256",
          "name": "tokenId",
          "type": "uint256"
        }
      ],
      "name": "safeTransferFrom",
      "outputs": [],
      "stateMutability": "nonpayable",
      "type": "function"
    },
    {
      "inputs": [
        {
          "internalType": "address",
          "name": "from",
          "type": "address"
        },
        {
          "internalType": "address",
          "name": "to",
          "type": "address"
        },
        {
          "internalType": "uint256",
          "name": "tokenId",
          "type": "uint256"
        },
        {
          "internalType": "bytes",
          "name": "_data",
          "type": "bytes"
        }
      ],
      "name": "safeTransferFrom",
      "outputs": [],
      "stateMutability": "nonpayable",
      "type": "function"
    },
    {
      "inputs": [
        {
          "internalType": "address",
          "name": "operator",
          "type": "address"
        },
        {
          "internalType": "bool",
          "name": "approved",
          "type": "bool"
        }
      ],
      "name": "setApprovalForAll",
      "outputs": [],
      "stateMutability": "nonpayable",
      "type": "function"
    },
    {
      "inputs": [
        {
          "internalType": "bytes4",
          "name": "interfaceId",
          "type": "bytes4"
        }
      ],
      "name": "supportsInterface",
      "outputs": [
        {
          "internalType": "bool",
          "name": "",
          "type": "bool"
        }
      ],
      "stateMutability": "view",
      "type": "function"
    },
    {
      "inputs": [],
      "name": "symbol",
      "outputs": [
        {
          "internalType": "string",
          "name": "",
          "type": "string"
        }
      ],
      "stateMutability": "view",
      "type": "function"
    },
    {
      "inputs": [
        {
          "internalType": "uint256",
          "name": "tokenId",
          "type": "uint256"
        }
      ],
      "name": "tokenURI",
      "outputs": [
        {
          "internalType": "string",
          "name": "",
          "type": "string"
        }
      ],
      "stateMutability": "view",
      "type": "function"
    },
    {
      "inputs": [
        {
          "internalType": "address",
          "name": "from",
          "type": "address"
        },
        {
          "internalType": "address",
          "name": "to",
          "type": "address"
        },
        {
          "internalType": "uint256",
          "name": "tokenId",
          "type": "uint256"
        }
      ],
      "name": "transferFrom",
      "outputs": [],
      "stateMutability": "nonpayable",
      "type": "function"
    }
  ],
  "bytecode": "0x60806040523480156200001157600080fd5b50604080518082018252600881526727232a29bab832b960c11b6020808301918252835180850190945260048452634e46545360e01b9084015281519192916200005e916000916200008f565b508051620000749060019060208401906200008f565b5050600780546001600160a01b031916331790555062000172565b8280546200009d9062000135565b90600052602060002090601f016020900481019282620000c157600085556200010c565b82601f10620000dc57805160ff19168380011785556200010c565b828001600101855582156200010c579182015b828111156200010c578251825591602001919060010190620000ef565b506200011a9291506200011e565b5090565b5b808211156200011a57600081556001016200011f565b600181811c908216806200014a57607f821691505b602082108114156200016c57634e487b7160e01b600052602260045260246000fd5b50919050565b6116ed80620001826000396000f3fe608060405234801561001057600080fd5b50600436106100f55760003560e01c806370a0823111610097578063b88d4fde11610066578063b88d4fde146101fd578063c87b56dd14610210578063e985e9c514610223578063fb37e8831461025f57600080fd5b806370a08231146101b0578063893d20e8146101d157806395d89b41146101e2578063a22cb465146101ea57600080fd5b8063095ea7b3116100d3578063095ea7b31461016257806323b872dd1461017757806342842e0e1461018a5780636352211e1461019d57600080fd5b806301ffc9a7146100fa57806306fdde0314610122578063081812fc14610137575b600080fd5b61010d61010836600461139f565b610272565b60405190151581526020015b60405180910390f35b61012a6102c4565b60405161011991906114cd565b61014a61014536600461141d565b610356565b6040516001600160a01b039091168152602001610119565b610175610170366004611376565b6103e3565b005b610175610185366004611288565b6104f9565b610175610198366004611288565b61052a565b61014a6101ab36600461141d565b610545565b6101c36101be36600461123c565b6105bc565b604051908152602001610119565b6007546001600160a01b031661014a565b61012a610643565b6101756101f836600461133c565b610652565b61017561020b3660046112c3565b610661565b61012a61021e36600461141d565b610699565b61010d610231366004611256565b6001600160a01b03918216600090815260056020908152604080832093909416825291909152205460ff1690565b6101c361026d3660046113d7565b610810565b60006001600160e01b031982166380ac58cd60e01b14806102a357506001600160e01b03198216635b5e139f60e01b145b806102be57506301ffc9a760e01b6001600160e01b03198316145b92915050565b6060600080546102d3906115f2565b80601f01602080910402602001604051908101604052809291908181526020018280546102ff906115f2565b801561034c5780601f106103215761010080835404028352916020019161034c565b820191906000526020600020905b81548152906001019060200180831161032f57829003601f168201915b5050505050905090565b600061036182610841565b6103c75760405162461bcd60e51b815260206004820152602c60248201527f4552433732313a20617070726f76656420717565727920666f72206e6f6e657860448201526b34b9ba32b73a103a37b5b2b760a11b60648201526084015b60405180910390fd5b506000908152600460205260409020546001600160a01b031690565b60006103ee82610545565b9050806001600160a01b0316836001600160a01b0316141561045c5760405162461bcd60e51b815260206004820152602160248201527f4552433732313a20617070726f76616c20746f2063757272656e74206f776e656044820152603960f91b60648201526084016103be565b336001600160a01b038216148061047857506104788133610231565b6104ea5760405162461bcd60e51b815260206004820152603860248201527f4552433732313a20617070726f76652063616c6c6572206973206e6f74206f7760448201527f6e6572206e6f7220617070726f76656420666f7220616c6c000000000000000060648201526084016103be565b6104f4838361085e565b505050565b61050333826108cc565b61051f5760405162461bcd60e51b81526004016103be90611532565b6104f48383836109b2565b6104f483838360405180602001604052806000815250610661565b6000818152600260205260408120546001600160a01b0316806102be5760405162461bcd60e51b815260206004820152602960248201527f4552433732313a206f776e657220717565727920666f72206e6f6e657869737460448201526832b73a103a37b5b2b760b91b60648201526084016103be565b60006001600160a01b0382166106275760405162461bcd60e51b815260206004820152602a60248201527f4552433732313a2062616c616e636520717565727920666f7220746865207a65604482015269726f206164647265737360b01b60648201526084016103be565b506001600160a01b031660009081526003602052604090205490565b6060600180546102d3906115f2565b61065d338383610b52565b5050565b61066b33836108cc565b6106875760405162461bcd60e51b81526004016103be90611532565b61069384848484610c21565b50505050565b60606106a482610841565b61070a5760405162461bcd60e51b815260206004820152603160248201527f45524337323155524953746f726167653a2055524920717565727920666f72206044820152703737b732bc34b9ba32b73a103a37b5b2b760791b60648201526084016103be565b60008281526006602052604081208054610723906115f2565b80601f016020809104026020016040519081016040528092919081815260200182805461074f906115f2565b801561079c5780601f106107715761010080835404028352916020019161079c565b820191906000526020600020905b81548152906001019060200180831161077f57829003601f168201915b5050505050905060006107ba60408051602081019091526000815290565b90508051600014156107cd575092915050565b8151156107ff5780826040516020016107e7929190611461565b60405160208183030381529060405292505050919050565b61080884610c54565b949350505050565b6000610820600880546001019055565b600061082b60085490565b90506108373382610d2c565b6102be8184610e5f565b6000908152600260205260409020546001600160a01b0316151590565b600081815260046020526040902080546001600160a01b0319166001600160a01b038416908117909155819061089382610545565b6001600160a01b03167f8c5be1e5ebec7d5bd14f71427d1e84f3dd0314c0f7b2291e5b200ac8c7c3b92560405160405180910390a45050565b60006108d782610841565b6109385760405162461bcd60e51b815260206004820152602c60248201527f4552433732313a206f70657261746f7220717565727920666f72206e6f6e657860448201526b34b9ba32b73a103a37b5b2b760a11b60648201526084016103be565b600061094383610545565b9050806001600160a01b0316846001600160a01b0316148061097e5750836001600160a01b031661097384610356565b6001600160a01b0316145b8061080857506001600160a01b0380821660009081526005602090815260408083209388168352929052205460ff16610808565b826001600160a01b03166109c582610545565b6001600160a01b031614610a2d5760405162461bcd60e51b815260206004820152602960248201527f4552433732313a207472616e73666572206f6620746f6b656e2074686174206960448201526839903737ba1037bbb760b91b60648201526084016103be565b6001600160a01b038216610a8f5760405162461bcd60e51b8152602060048201526024808201527f4552433732313a207472616e7366657220746f20746865207a65726f206164646044820152637265737360e01b60648201526084016103be565b610a9a60008261085e565b6001600160a01b0383166000908152600360205260408120805460019290610ac39084906115af565b90915550506001600160a01b0382166000908152600360205260408120805460019290610af1908490611583565b909155505060008181526002602052604080822080546001600160a01b0319166001600160a01b0386811691821790925591518493918716917fddf252ad1be2c89b69c2b068fc378daa952ba7f163c4a11628f55a4df523b3ef91a4505050565b816001600160a01b0316836001600160a01b03161415610bb45760405162461bcd60e51b815260206004820152601960248201527f4552433732313a20617070726f766520746f2063616c6c65720000000000000060448201526064016103be565b6001600160a01b03838116600081815260056020908152604080832094871680845294825291829020805460ff191686151590811790915591519182527f17307eab39ab6107e8899845ad3d59bd9653f200f220920489ca2b5937696c31910160405180910390a3505050565b610c2c8484846109b2565b610c3884848484610eea565b6106935760405162461bcd60e51b81526004016103be906114e0565b6060610c5f82610841565b610cc35760405162461bcd60e51b815260206004820152602f60248201527f4552433732314d657461646174613a2055524920717565727920666f72206e6f60448201526e3732bc34b9ba32b73a103a37b5b2b760891b60648201526084016103be565b6000610cda60408051602081019091526000815290565b90506000815111610cfa5760405180602001604052806000815250610d25565b80610d0484610ff7565b604051602001610d15929190611461565b6040516020818303038152906040525b9392505050565b6001600160a01b038216610d825760405162461bcd60e51b815260206004820181905260248201527f4552433732313a206d696e7420746f20746865207a65726f206164647265737360448201526064016103be565b610d8b81610841565b15610dd85760405162461bcd60e51b815260206004820152601c60248201527f4552433732313a20746f6b656e20616c7265616479206d696e7465640000000060448201526064016103be565b6001600160a01b0382166000908152600360205260408120805460019290610e01908490611583565b909155505060008181526002602052604080822080546001600160a01b0319166001600160a01b03861690811790915590518392907fddf252ad1be2c89b69c2b068fc378daa952ba7f163c4a11628f55a4df523b3ef908290a45050565b610e6882610841565b610ecb5760405162461bcd60e51b815260206004820152602e60248201527f45524337323155524953746f726167653a2055524920736574206f66206e6f6e60448201526d32bc34b9ba32b73a103a37b5b2b760911b60648201526084016103be565b600082815260066020908152604090912082516104f492840190611111565b60006001600160a01b0384163b15610fec57604051630a85bd0160e11b81526001600160a01b0385169063150b7a0290610f2e903390899088908890600401611490565b602060405180830381600087803b158015610f4857600080fd5b505af1925050508015610f78575060408051601f3d908101601f19168201909252610f75918101906113bb565b60015b610fd2573d808015610fa6576040519150601f19603f3d011682016040523d82523d6000602084013e610fab565b606091505b508051610fca5760405162461bcd60e51b81526004016103be906114e0565b805181602001fd5b6001600160e01b031916630a85bd0160e11b149050610808565b506001949350505050565b60608161101b5750506040805180820190915260018152600360fc1b602082015290565b8160005b8115611045578061102f8161162d565b915061103e9050600a8361159b565b915061101f565b60008167ffffffffffffffff81111561106e57634e487b7160e01b600052604160045260246000fd5b6040519080825280601f01601f191660200182016040528015611098576020820181803683370190505b5090505b8415610808576110ad6001836115af565b91506110ba600a86611648565b6110c5906030611583565b60f81b8183815181106110e857634e487b7160e01b600052603260045260246000fd5b60200101906001600160f81b031916908160001a90535061110a600a8661159b565b945061109c565b82805461111d906115f2565b90600052602060002090601f01602090048101928261113f5760008555611185565b82601f1061115857805160ff1916838001178555611185565b82800160010185558215611185579182015b8281111561118557825182559160200191906001019061116a565b50611191929150611195565b5090565b5b808211156111915760008155600101611196565b600067ffffffffffffffff808411156111c5576111c5611688565b604051601f8501601f19908116603f011681019082821181831017156111ed576111ed611688565b8160405280935085815286868601111561120657600080fd5b858560208301376000602087830101525050509392505050565b80356001600160a01b038116811461123757600080fd5b919050565b60006020828403121561124d578081fd5b610d2582611220565b60008060408385031215611268578081fd5b61127183611220565b915061127f60208401611220565b90509250929050565b60008060006060848603121561129c578081fd5b6112a584611220565b92506112b360208501611220565b9150604084013590509250925092565b600080600080608085870312156112d8578081fd5b6112e185611220565b93506112ef60208601611220565b925060408501359150606085013567ffffffffffffffff811115611311578182fd5b8501601f81018713611321578182fd5b611330878235602084016111aa565b91505092959194509250565b6000806040838503121561134e578182fd5b61135783611220565b91506020830135801515811461136b578182fd5b809150509250929050565b60008060408385031215611388578182fd5b61139183611220565b946020939093013593505050565b6000602082840312156113b0578081fd5b8135610d258161169e565b6000602082840312156113cc578081fd5b8151610d258161169e565b6000602082840312156113e8578081fd5b813567ffffffffffffffff8111156113fe578182fd5b8201601f8101841361140e578182fd5b610808848235602084016111aa565b60006020828403121561142e578081fd5b5035919050565b6000815180845261144d8160208601602086016115c6565b601f01601f19169290920160200192915050565b600083516114738184602088016115c6565b8351908301906114878183602088016115c6565b01949350505050565b6001600160a01b03858116825284166020820152604081018390526080606082018190526000906114c390830184611435565b9695505050505050565b602081526000610d256020830184611435565b60208082526032908201527f4552433732313a207472616e7366657220746f206e6f6e20455243373231526560408201527131b2b4bb32b91034b6b83632b6b2b73a32b960711b606082015260800190565b60208082526031908201527f4552433732313a207472616e736665722063616c6c6572206973206e6f74206f6040820152701ddb995c881b9bdc88185c1c1c9bdd9959607a1b606082015260800190565b600082198211156115965761159661165c565b500190565b6000826115aa576115aa611672565b500490565b6000828210156115c1576115c161165c565b500390565b60005b838110156115e15781810151838201526020016115c9565b838111156106935750506000910152565b600181811c9082168061160657607f821691505b6020821081141561162757634e487b7160e01b600052602260045260246000fd5b50919050565b60006000198214156116415761164161165c565b5060010190565b60008261165757611657611672565b500690565b634e487b7160e01b600052601160045260246000fd5b634e487b7160e01b600052601260045260246000fd5b634e487b7160e01b600052604160045260246000fd5b6001600160e01b0319811681146116b457600080fd5b5056fea26469706673582212201ffb504692010c89d9d5c066a796bba8e84f6c4ac08442dde954847d2fd0a1cb64736f6c63430008040033",
  "linkReferences": {},
  "deployedLinkReferences": {}
}